:100000000C9440000C945D000C945D000C945D0019
:100010000C945D000C94D0020C945D000C945D0077
:100020000C945D000C945D000C945D000C94EA014E
:100030000C945D000C945D000C94B8010C945D0070
:100040000C945D000C945D000C945D000C945D00BC
:100050000C945D000C945D000C945D000C945D00AC
:100060000C945D000C945D00010201030104020385
:10007000020402050304030503060405040605063D
:1000800011241FBECFEFD4E0DEBFCDBF11E0A0E052
:10009000B1E0E0E7F8E002C005900D92A430B107AE
:1000A000D9F721E0A4E0B1E001C01D92AE30B20763
:1000B000E1F70E94F5020C9436040C94000087B11D
:1000C000817F87B98AB18F788AB984B1846184B914
:1000D0003D9A85B1846185B9459A8AB1807F8AB994
:1000E0008BB18F608BB908958091010190910201CD
:1000F0000895909302018093010108958093000177
:10010000089588B1817F88B98BB18F788BB987B119
:10011000817F87B98AB18F788AB908959C01220FAF
:10012000331FF901E859FF4F9491F901E759FF4F47
:10013000E4916623C9F1943070F08AB121E030E097
:1001400001C0220F9A95EAF7822B8AB98BB12095CC
:1001500028232BB90DC087B121E030E001C0220F68
:100160009A95EAF7822B87B988B12095282328B978
:10017000E43068F02AB181E090E001C0880FEA9590
:10018000EAF7922F982B9AB99BB1892B37C027B1E8
:1001900081E090E001C0880FEA95EAF7922F982B52
:1001A00097B998B1892B39C0943068F08AB121E0B1
:1001B00030E001C0220F9A95EAF7822B8AB98BB101
:1001C000282B2BB90CC087B121E030E001C0220FF1
:1001D0009A95EAF7822B87B988B1282B28B9E430A1
:1001E00078F02AB181E090E001C0880FEA95EAF743
:1001F000922F982B9AB99BB1809589238BB908953A
:1002000027B181E090E001C0880FEA95EAF7922FCC
:10021000982B97B998B18095892388B90895CF9381
:100220000E948100C0910701209100018C2F90E075
:10023000C21302C060E011C021E030E00C2E02C009
:10024000220F331F0A94E2F74091010150910201FD
:1002500024233523232B19F061E00E948E00CF5F09
:10026000CC3018F4C093070102C010920701CF915F
:1002700008950F931F93CF93DF936091040185B18D
:10028000846185B9459A80910601813021F08230E0
:1002900021F02A9803C02C9801C0459876E07A9501
:1002A000F1F700C089B190E00090050102C095957A
:1002B00087950A94E2F781709927C1E0D0E0062E75
:1002C00002C0CC0FDD1F0A94E2F740910801509163
:1002D00009019C0171E0272702C0220F331F6A9594
:1002E000E2F7BE01642375236217730709F18E01DB
:1002F0000095109540235123242B352B3093090171
:1003000020930801892BA1F40E94FF018091010133
:10031000909102019E0128233923232B19F48C2B61
:100320009D2B02C0802391239093020180930101B1
:10033000809104018F5F80930401809105018F5F9C
:10034000843018F4809305010EC01092050180914D
:1003500006018F5F833018F48093060104C0109269
:10036000060110920401DF91CF911F910F91089522
:100370001F920F920FB60F9211248F9385B58A7F2B
:1003800085BD299A8F910F900FBE0F901F901895E1
:1003900082E084BD80EF87BDEEE6F0E08081826080
:1003A0008083E1E8F0E080818560808380818860DF
:1003B00080838BE49CE49093890080938800EFE62F
:1003C000F0E0808182608083089516BC85B58560E9
:1003D00085BD08951F920F920FB60F9211248F932F
:1003E00080910A018F3028F480910A018F5F8093F9
:1003F0000A018F910F900FBE0F901F9018951092C9
:10040000030110920A0108958091030181110BC02C
:1004100080910A018F3038F00E9474000E946403BA
:1004200081E080930301089584B1886284B982E1F8
:100430008CBD1DBC08958EBD0DB407FEFDCF8EB5DD
:100440000895882319F08CB5806402C08CB58F7B29
:100450008CBD089580B7806880BF3C98449A5798B7
:100460005F980E94C8010E9406030E94A3030E9495
:100470005F00E8E6F0E0808184608083EDE6F0E0F4
:10048000808180688083789408959F92AF92BF9214
:10049000CF92DF92EF92FF920F931F93CF93DF9350
:1004A000EC010E947400892B29F483E60E947E00EF
:1004B00080E059C080910B019E01281B3109C901C0
:1004C00037FF03C091958195910902970CF449C0BB
:1004D000C0930B01CE01880F991F089661E170E06F
:1004E0000E94DD03162F862F6CE00E94D103082F97
:1004F000982E4CE0849F10191124C0E0D0E0E12E2A
:10050000F12C3CE0C32ED12CAA24A394B12C0E9440
:1005100074009C01CE018E0D9F1DB6010E94F10357
:10052000A50102C0440F551F8A95E2F7CA01822334
:100530009323892B21F42196CD30D10541F78C2FBF
:10054000810F8C3020F08C5099249394900EC82FFA
:100550005CE0959EC00D11240E947E008C2F880FB8
:1005600002C080910C01DF91CF911F910F91FF90FC
:10057000EF90DF90CF90BF90AF909F9008950E9432
:10058000C30301960E94450290910C01891739F02E
:1005900080930C0160E00E940F030C94E501089524
:1005A0001F920F920FB60F9211242F933F934F93E8
:1005B0005F936F937F938F939F93AF93BF93EF93CB
:1005C000FF934F9B0E94BF02FF91EF91BF91AF91AC
:1005D0009F918F917F916F915F914F913F912F915B
:1005E0000F900FBE0F901F9018950E942A020E9434
:1005F00057030E9479000E9439010E940F010E9456
:100600000402349BF8CF0E94BF02F5CF0E9414026F
:1006100084B1836084B985B1836085B90895CF932F
:10062000DF93299A289820E1829FC0011124EC01D0
:10063000D06181E00E9421028D2F0E941B028C2F2D
:100640000E941B0280E00E942102289A2998DF91D3
:10065000CF910895EF92FF921F93CF93DF9380E0A5
:10066000E82E80E0F82E10E0D1E0D10FC7010E9403
:100670000504C82F8D2F8F7790E0805090400E9406
:100680000504CF5F2C2F30E090E02817390739F4AC
:100690008FEFE81AF80A1D2FD03831F701C0D12F9B
:1006A0008D2FDF91CF911F91FF90EF9008950E94C1
:1006B0002A0380930D0190E0880F991F80589F4F67
:1006C0000E940D049F700895EF92FF920F931F9365
:1006D000CF93DF938C01C0910D01EC2EF12CC7015B
:1006E000880F991F80589F4F0E940D048017910713
:1006F00019F1C701805090400E940504D82F81E075
:100700008C0F8F7780930D0190E0880F991FB801AF
:1007100080589F4F0E94210461E06D0F90910D0160
:10072000892F90E080509040DF91CF911F910F91E1
:10073000FF90EF900C941304DF91CF911F910F91D4
:10074000FF90EF9008953898409880E480937C0063
:1007500080917C00807E80937C0087E080937A008B
:1007600080917A00806880937A0080917A0080641A
:1007700080937A0080917A0086FDFCCF809178008A
:1007800090917900089580917A00806480937A0036
:1007900080917A0086FDFCCF80917800909179005D
:1007A0000895991B79E004C0991F961708F0961BCD
:1007B000881F7A95C9F780950895AA1BBB1B51E144
:1007C00007C0AA1FBB1FA617B70710F0A61BB70BC1
:1007D000881F991F5A95A9F780959095BC01CD0166
:1007E000089597FB072E16F4009407D077FD09D0E3
:1007F0000E94DD0307FC05D03EF4909581959F4F44
:100800000895709561957F4F0895F999FECF92BD37
:1008100081BDF89A992780B50895A8E1B0E042E03B
:1008200050E00C942804262FF999FECF1FBA92BDF0
:1008300081BD20BD0FB6F894FA9AF99A0FBE0196C1
:1008400008950E941304272F0C941404DC01CB019B
:10085000FC01F999FECF06C0F2BDE1BDF89A3196D0
:1008600000B40D9241505040B8F70895F894FFCF6E
:0408700002FF0F0173
:00000001FF
